{
  "contractName": "MarketPlace",
  "abi": [
    {
      "constant": true,
      "inputs": [
        {
          "name": "",
          "type": "uint256"
        }
      ],
      "name": "buyer",
      "outputs": [
        {
          "name": "id",
          "type": "uint256"
        },
        {
          "name": "buyerAddress",
          "type": "address"
        },
        {
          "name": "review",
          "type": "uint256"
        }
      ],
      "payable": false,
      "stateMutability": "view",
      "type": "function"
    },
    {
      "constant": true,
      "inputs": [
        {
          "name": "",
          "type": "uint256"
        }
      ],
      "name": "seller",
      "outputs": [
        {
          "name": "id",
          "type": "uint256"
        },
        {
          "name": "sellerAddress",
          "type": "address"
        },
        {
          "name": "review",
          "type": "uint256"
        }
      ],
      "payable": false,
      "stateMutability": "view",
      "type": "function"
    },
    {
      "constant": true,
      "inputs": [
        {
          "name": "",
          "type": "uint256"
        }
      ],
      "name": "lands",
      "outputs": [
        {
          "name": "id",
          "type": "uint256"
        },
        {
          "name": "seller",
          "type": "address"
        },
        {
          "name": "buyer",
          "type": "address"
        },
        {
          "name": "name",
          "type": "string"
        },
        {
          "name": "description",
          "type": "string"
        },
        {
          "name": "price",
          "type": "uint256"
        }
      ],
      "payable": false,
      "stateMutability": "view",
      "type": "function"
    },
    {
      "anonymous": false,
      "inputs": [
        {
          "indexed": true,
          "name": "_id",
          "type": "uint256"
        },
        {
          "indexed": true,
          "name": "_seller",
          "type": "address"
        },
        {
          "indexed": false,
          "name": "_name",
          "type": "string"
        },
        {
          "indexed": false,
          "name": "_price",
          "type": "uint256"
        }
      ],
      "name": "sellLandEvent",
      "type": "event"
    },
    {
      "anonymous": false,
      "inputs": [
        {
          "indexed": true,
          "name": "_id",
          "type": "uint256"
        },
        {
          "indexed": true,
          "name": "_seller",
          "type": "address"
        },
        {
          "indexed": true,
          "name": "_buyer",
          "type": "address"
        },
        {
          "indexed": false,
          "name": "_name",
          "type": "string"
        },
        {
          "indexed": false,
          "name": "_price",
          "type": "uint256"
        }
      ],
      "name": "buyLandEvent",
      "type": "event"
    },
    {
      "anonymous": false,
      "inputs": [
        {
          "indexed": true,
          "name": "_id",
          "type": "uint256"
        },
        {
          "indexed": true,
          "name": "_seller",
          "type": "address"
        },
        {
          "indexed": true,
          "name": "_buyer",
          "type": "address"
        },
        {
          "indexed": false,
          "name": "_name",
          "type": "string"
        },
        {
          "indexed": false,
          "name": "_price",
          "type": "uint256"
        }
      ],
      "name": "returnLandEvent",
      "type": "event"
    },
    {
      "constant": true,
      "inputs": [],
      "name": "displayOwner",
      "outputs": [
        {
          "name": "",
          "type": "address"
        }
      ],
      "payable": false,
      "stateMutability": "view",
      "type": "function"
    },
    {
      "constant": false,
      "inputs": [
        {
          "name": "_name",
          "type": "string"
        },
        {
          "name": "_description",
          "type": "string"
        },
        {
          "name": "_price",
          "type": "uint256"
        }
      ],
      "name": "sellLand",
      "outputs": [],
      "payable": false,
      "stateMutability": "nonpayable",
      "type": "function"
    },
    {
      "constant": true,
      "inputs": [],
      "name": "getNumberOfLands",
      "outputs": [
        {
          "name": "",
          "type": "uint256"
        }
      ],
      "payable": false,
      "stateMutability": "view",
      "type": "function"
    },
    {
      "constant": true,
      "inputs": [],
      "name": "getLandsForSale",
      "outputs": [
        {
          "name": "",
          "type": "uint256[]"
        }
      ],
      "payable": false,
      "stateMutability": "view",
      "type": "function"
    },
    {
      "constant": true,
      "inputs": [],
      "name": "getLandsSold",
      "outputs": [
        {
          "name": "",
          "type": "uint256[]"
        }
      ],
      "payable": false,
      "stateMutability": "view",
      "type": "function"
    },
    {
      "constant": false,
      "inputs": [
        {
          "name": "_id",
          "type": "uint256"
        }
      ],
      "name": "buyLand",
      "outputs": [],
      "payable": true,
      "stateMutability": "payable",
      "type": "function"
    },
    {
      "constant": false,
      "inputs": [
        {
          "name": "_id",
          "type": "uint256"
        }
      ],
      "name": "returnLand",
      "outputs": [],
      "payable": false,
      "stateMutability": "nonpayable",
      "type": "function"
    },
    {
      "constant": false,
      "inputs": [
        {
          "name": "_landId",
          "type": "uint256"
        }
      ],
      "name": "review",
      "outputs": [],
      "payable": false,
      "stateMutability": "nonpayable",
      "type": "function"
    },
    {
      "constant": false,
      "inputs": [
        {
          "name": "_landId",
          "type": "uint256"
        },
        {
          "name": "landPrice",
          "type": "uint256"
        }
      ],
      "name": "increasePrice",
      "outputs": [],
      "payable": false,
      "stateMutability": "nonpayable",
      "type": "function"
    },
    {
      "constant": false,
      "inputs": [],
      "name": "kill",
      "outputs": [],
      "payable": false,
      "stateMutability": "nonpayable",
      "type": "function"
    }
  ],
  "bytecode": "0x6080604052600060025560006004556123df600755336000806101000a81548173ffffffffffffffffffffffffffffffffffffffff021916908373ffffffffffffffffffffffffffffffffffffffff160217905550611b57806100636000396000f3fe6080604052600436106100c5576000357c0100000000000000000000000000000000000000000000000000000000900463ffffffff1680630d7ea10f146100ca57806341c0e1b51461012157806346912df7146101385780634dd4acaf146101735780634eac2fb5146101fc5780637cd820ce146102415780639f5c73cd146103aa578063aacdfe6f14610416578063acb5112e1461049f578063ced39558146104ca578063e1e96c9b146104f8578063e261f1e514610533578063f6c1b992146106c7575b600080fd5b3480156100d657600080fd5b506100df610733565b604051808273ffffffffffffffffffffffffffffffffffffffff1673ffffffffffffffffffffffffffffffffffffffff16815260200191505060405180910390f35b34801561012d57600080fd5b5061013661075c565b005b34801561014457600080fd5b506101716004803603602081101561015b57600080fd5b81019080803590602001909291905050506107f1565b005b34801561017f57600080fd5b506101ac6004803603602081101561019657600080fd5b8101908080359060200190929190505050610a1b565b604051808481526020018373ffffffffffffffffffffffffffffffffffffffff1673ffffffffffffffffffffffffffffffffffffffff168152602001828152602001935050505060405180910390f35b34801561020857600080fd5b5061023f6004803603604081101561021f57600080fd5b810190808035906020019092919080359060200190929190505050610a65565b005b34801561024d57600080fd5b506103a86004803603606081101561026457600080fd5b810190808035906020019064010000000081111561028157600080fd5b82018360208201111561029357600080fd5b803590602001918460018302840111640100000000831117156102b557600080fd5b91908080601f016020809104026020016040519081016040528093929190818152602001838380828437600081840152601f19601f8201169050808301925050505050505091929192908035906020019064010000000081111561031857600080fd5b82018360208201111561032a57600080fd5b8035906020019184600183028401116401000000008311171561034c57600080fd5b91908080601f016020809104026020016040519081016040528093929190818152602001838380828437600081840152601f19601f82011690508083019250505050505050919291929080359060200190929190505050610b40565b005b3480156103b657600080fd5b506103bf610ed3565b6040518080602001828103825283818151815260200191508051906020019060200280838360005b838110156104025780820151818401526020810190506103e7565b505050509050019250505060405180910390f35b34801561042257600080fd5b5061044f6004803603602081101561043957600080fd5b81019080803590602001909291905050506110a9565b604051808481526020018373ffffffffffffffffffffffffffffffffffffffff1673ffffffffffffffffffffffffffffffffffffffff168152602001828152602001935050505060405180910390f35b3480156104ab57600080fd5b506104b46110f3565b6040518082815260200191505060405180910390f35b6104f6600480360360208110156104e057600080fd5b81019080803590602001909291905050506110fd565b005b34801561050457600080fd5b506105316004803603602081101561051b57600080fd5b810190808035906020019092919050505061154e565b005b34801561053f57600080fd5b5061056c6004803603602081101561055657600080fd5b8101908080359060200190929190505050611705565b604051808781526020018673ffffffffffffffffffffffffffffffffffffffff1673ffffffffffffffffffffffffffffffffffffffff1681526020018573ffffffffffffffffffffffffffffffffffffffff1673ffffffffffffffffffffffffffffffffffffffff1681526020018060200180602001848152602001838103835286818151815260200191508051906020019080838360005b83811015610620578082015181840152602081019050610605565b50505050905090810190601f16801561064d5780820380516001836020036101000a031916815260200191505b50838103825285818151815260200191508051906020019080838360005b8381101561068657808201518184015260208101905061066b565b50505050905090810190601f1680156106b35780820380516001836020036101000a031916815260200191505b509850505050505050505060405180910390f35b3480156106d357600080fd5b506106dc6118b1565b6040518080602001828103825283818151815260200191508051906020019060200280838360005b8381101561071f578082015181840152602081019050610704565b505050509050019250505060405180910390f35b60008060009054906101000a900473ffffffffffffffffffffffffffffffffffffffff16905090565b6000809054906101000a900473ffffffffffffffffffffffffffffffffffffffff1673ffffffffffffffffffffffffffffffffffffffff163373ffffffffffffffffffffffffffffffffffffffff161415156107b757600080fd5b6000809054906101000a900473ffffffffffffffffffffffffffffffffffffffff1673ffffffffffffffffffffffffffffffffffffffff16ff5b600060065411151561080257600080fd5b60008111801561081457506006548111155b151561081f57600080fd5b60006005600083815260200190815260200160002090503373ffffffffffffffffffffffffffffffffffffffff168160020160009054906101000a900473ffffffffffffffffffffffffffffffffffffffff1673ffffffffffffffffffffffffffffffffffffffff1614151561089457600080fd5b60008160020160006101000a81548173ffffffffffffffffffffffffffffffffffffffff021916908373ffffffffffffffffffffffffffffffffffffffff1602179055508060020160009054906101000a900473ffffffffffffffffffffffffffffffffffffffff1673ffffffffffffffffffffffffffffffffffffffff168160010160009054906101000a900473ffffffffffffffffffffffffffffffffffffffff1673ffffffffffffffffffffffffffffffffffffffff16837fe88837a0ee1f8041e7c78ee9dc8d33315f8feb7f04ca5f5e7b3d4b25fe0f01688460030185600501546040518080602001838152602001828103825284818154600181600116156101000203166002900481526020019150805460018160011615610100020316600290048015610a085780601f106109dd57610100808354040283529160200191610a08565b820191906000526020600020905b8154815290600101906020018083116109eb57829003601f168201915b5050935050505060405180910390a45050565b60036020528060005260406000206000915090508060000154908060010160009054906101000a900473ffffffffffffffffffffffffffffffffffffffff16908060020154905083565b6000600190505b60065481111515610b3b57826005600083815260200190815260200160002060000154148015610afd57503373ffffffffffffffffffffffffffffffffffffffff166005600083815260200190815260200160002060010160009054906101000a900473ffffffffffffffffffffffffffffffffffffffff1673ffffffffffffffffffffffffffffffffffffffff16145b15610b2e5760075482811515610b0f57fe5b0491508160056000838152602001908152602001600020600501819055505b8080600101915050610a6c565b505050565b60066000815480929190600101919050555060075481811515610b5f57fe5b04905060c06040519081016040528060065481526020013373ffffffffffffffffffffffffffffffffffffffff168152602001600073ffffffffffffffffffffffffffffffffffffffff168152602001848152602001838152602001828152506005600060065481526020019081526020016000206000820151816000015560208201518160010160006101000a81548173ffffffffffffffffffffffffffffffffffffffff021916908373ffffffffffffffffffffffffffffffffffffffff16021790555060408201518160020160006101000a81548173ffffffffffffffffffffffffffffffffffffffff021916908373ffffffffffffffffffffffffffffffffffffffff1602179055506060820151816003019080519060200190610c88929190611a86565b506080820151816004019080519060200190610ca5929190611a86565b5060a0820151816005015590505060008090506000600190505b60025481111515610d4a573373ffffffffffffffffffffffffffffffffffffffff166001600083815260200190815260200160002060010160009054906101000a900473ffffffffffffffffffffffffffffffffffffffff1673ffffffffffffffffffffffffffffffffffffffff161415610d3d5781806001019250505b8080600101915050610cbf565b506000811415610e0f5760026000815480929190600101919050555060606040519081016040528060025481526020013373ffffffffffffffffffffffffffffffffffffffff16815260200160008152506001600060025481526020019081526020016000206000820151816000015560208201518160010160006101000a81548173ffffffffffffffffffffffffffffffffffffffff021916908373ffffffffffffffffffffffffffffffffffffffff160217905550604082015181600201559050505b3373ffffffffffffffffffffffffffffffffffffffff166006547f252b4d133cd818ac68f05de9227341601c461727b1e7bdaa5349c6a02bb3e6d486856040518080602001838152602001828103825284818151815260200191508051906020019080838360005b83811015610e92578082015181840152602081019050610e77565b50505050905090810190601f168015610ebf5780820380516001836020036101000a031916815260200191505b50935050505060405180910390a350505050565b606060006006541415610f18576000604051908082528060200260200182016040528015610f105781602001602082028038833980820191505090505b5090506110a6565b6060600654604051908082528060200260200182016040528015610f4b5781602001602082028038833980820191505090505b50905060008090506000600190505b6006548111151561101a57600073ffffffffffffffffffffffffffffffffffffffff166005600083815260200190815260200160002060020160009054906101000a900473ffffffffffffffffffffffffffffffffffffffff1673ffffffffffffffffffffffffffffffffffffffff1614151561100d5760056000828152602001908152602001600020600001548383815181101515610ff657fe5b906020019060200201818152505081806001019250505b8080600101915050610f5a565b5060608160405190808252806020026020018201604052801561104c5781602001602082028038833980820191505090505b50905060008090505b8281101561109e57838181518110151561106b57fe5b90602001906020020151828281518110151561108357fe5b90602001906020020181815250508080600101915050611055565b508093505050505b90565b60016020528060005260406000206000915090508060000154908060010160009054906101000a900473ffffffffffffffffffffffffffffffffffffffff16908060020154905083565b6000600654905090565b600060065411151561110e57600080fd5b60008111801561112057506006548111155b151561112b57600080fd5b6000600560008381526020019081526020016000209050600073ffffffffffffffffffffffffffffffffffffffff168160020160009054906101000a900473ffffffffffffffffffffffffffffffffffffffff1673ffffffffffffffffffffffffffffffffffffffff161415156111a157600080fd5b3373ffffffffffffffffffffffffffffffffffffffff168160010160009054906101000a900473ffffffffffffffffffffffffffffffffffffffff1673ffffffffffffffffffffffffffffffffffffffff161415151561120057600080fd5b338160020160006101000a81548173ffffffffffffffffffffffffffffffffffffffff021916908373ffffffffffffffffffffffffffffffffffffffff1602179055508060010160009054906101000a900473ffffffffffffffffffffffffffffffffffffffff1673ffffffffffffffffffffffffffffffffffffffff166108fc349081150290604051600060405180830381858888f193505050501580156112ad573d6000803e3d6000fd5b5060008090506000600190505b60045481111515611345573373ffffffffffffffffffffffffffffffffffffffff166003600083815260200190815260200160002060010160009054906101000a900473ffffffffffffffffffffffffffffffffffffffff1673ffffffffffffffffffffffffffffffffffffffff1614156113385781806001019250505b80806001019150506112ba565b50600081141561140a5760046000815480929190600101919050555060606040519081016040528060045481526020013373ffffffffffffffffffffffffffffffffffffffff16815260200160008152506003600060045481526020019081526020016000206000820151816000015560208201518160010160006101000a81548173ffffffffffffffffffffffffffffffffffffffff021916908373ffffffffffffffffffffffffffffffffffffffff160217905550604082015181600201559050505b8160020160009054906101000a900473ffffffffffffffffffffffffffffffffffffffff1673ffffffffffffffffffffffffffffffffffffffff168260010160009054906101000a900473ffffffffffffffffffffffffffffffffffffffff1673ffffffffffffffffffffffffffffffffffffffff16847f6757ac2a2ad9daf9a95252d129bec57320770537784224c35dbce435b9bdf6fc856003018660050154604051808060200183815260200182810382528481815460018160011615610100020316600290048152602001915080546001816001161561010002031660029004801561153a5780601f1061150f5761010080835404028352916020019161153a565b820191906000526020600020905b81548152906001019060200180831161151d57829003601f168201915b5050935050505060405180910390a4505050565b60008090506000600190505b60065481111515611700573373ffffffffffffffffffffffffffffffffffffffff166005600083815260200190815260200160002060020160009054906101000a900473ffffffffffffffffffffffffffffffffffffffff1673ffffffffffffffffffffffffffffffffffffffff1614156116e4576000600190505b600254811115156116e2576001600082815260200190815260200160002060010160009054906101000a900473ffffffffffffffffffffffffffffffffffffffff1673ffffffffffffffffffffffffffffffffffffffff166005600084815260200190815260200160002060010160009054906101000a900473ffffffffffffffffffffffffffffffffffffffff1673ffffffffffffffffffffffffffffffffffffffff1614801561169d5750836001600083815260200190815260200160002060000154145b156116d557600160008281526020019081526020016000206002016000815480929190600101919050555082806001019350506116e2565b80806001019150506115d6565b505b6000821415156116f357611700565b808060010191505061155a565b505050565b60056020528060005260406000206000915090508060000154908060010160009054906101000a900473ffffffffffffffffffffffffffffffffffffffff16908060020160009054906101000a900473ffffffffffffffffffffffffffffffffffffffff1690806003018054600181600116156101000203166002900480601f0160208091040260200160405190810160405280929190818152602001828054600181600116156101000203166002900480156118035780601f106117d857610100808354040283529160200191611803565b820191906000526020600020905b8154815290600101906020018083116117e657829003601f168201915b505050505090806004018054600181600116156101000203166002900480601f0160208091040260200160405190810160405280929190818152602001828054600181600116156101000203166002900480156118a15780601f10611876576101008083540402835291602001916118a1565b820191906000526020600020905b81548152906001019060200180831161188457829003601f168201915b5050505050908060050154905086565b6060600060065414156118f65760006040519080825280602002602001820160405280156118ee5781602001602082028038833980820191505090505b509050611a83565b60606006546040519080825280602002602001820160405280156119295781602001602082028038833980820191505090505b50905060008090506000600190505b600654811115156119f757600073ffffffffffffffffffffffffffffffffffffffff166005600083815260200190815260200160002060020160009054906101000a900473ffffffffffffffffffffffffffffffffffffffff1673ffffffffffffffffffffffffffffffffffffffff1614156119ea57600560008281526020019081526020016000206000015483838151811015156119d357fe5b906020019060200201818152505081806001019250505b8080600101915050611938565b50606081604051908082528060200260200182016040528015611a295781602001602082028038833980820191505090505b50905060008090505b82811015611a7b578381815181101515611a4857fe5b906020019060200201518282815181101515611a6057fe5b90602001906020020181815250508080600101915050611a32565b508093505050505b90565b828054600181600116156101000203166002900490600052602060002090601f016020900481019282601f10611ac757805160ff1916838001178555611af5565b82800160010185558215611af5579182015b82811115611af4578251825591602001919060010190611ad9565b5b509050611b029190611b06565b5090565b611b2891905b80821115611b24576000816000905550600101611b0c565b5090565b9056fea165627a7a72305820089cd04b5b144ef6763e06a64e456f13bba5bf117f3b303352d17cb23cd325a20029",
  "source": "pragma solidity >=0.4.0 <0.6.0;\r\n\r\ncontract Owned {\r\n  // State variables\r\n  address payable owner;\r\n\r\n  //modifiers\r\n  modifier onlyOwner() {\r\n    require(msg.sender == owner);\r\n    _;\r\n  }\r\n\r\n  // constructor\r\n  constructor () public {\r\n    owner = msg.sender;\r\n  }\r\n}\r\n\r\ncontract MarketPlace is Owned {\r\n\r\n          // Custom types\r\n          struct Land {\r\n                uint id;\r\n                address payable seller;\r\n                address payable buyer;\r\n                string name;\r\n                string description;\r\n                uint256 price;\r\n            \r\n          }\r\n          \r\n          //structure for seller identites\r\n          struct Seller {\r\n                uint id;\r\n                address payable sellerAddress;\r\n                uint review;\r\n          }\r\n          \r\n          //structure for buyer identites\r\n          struct Buyer {\r\n                uint id;\r\n                address payable buyerAddress;\r\n                uint review;\r\n          }\r\n          \r\n          //mapping land for selling and buying\r\n          //set variables for seller count and buyer\r\n          mapping(uint => Seller) public seller;\r\n          uint sellerCount = 0;\r\n          mapping(uint => Buyer) public buyer;\r\n          uint buyerCount = 0 ;\r\n          \r\n          \r\n          \r\n          //mapping land for selling and buying\r\n          mapping(uint => Land) public lands;\r\n          uint landCounter;\r\n          \r\n          \r\n          //set a static ether value in indian rupees\r\n          uint ethCounter=9183;\r\n          \r\n          /*//mapping to check whether to show land\r\n          mapping(uint =>bool) public isAllowToDisplay;\r\n          \r\n          \r\n          //funtion to allow display\r\n          function allowToDisplay(uint _id) public\r\n          {\r\n              isAllowToDisplay[_id]=true;\r\n          }\r\n          \r\n          \r\n          //funtion to disallow display\r\n          function disallowToDisplay(uint _id) public\r\n          {\r\n              isAllowToDisplay[_id]=false;\r\n          }\r\n          \r\n          */\r\n          \r\n          //feedback check\r\n          \r\n          \r\n          \r\n          //check the value of owner \r\n          function displayOwner() public view returns (address)\r\n          {\r\n              return owner;\r\n          }\r\n          \r\n          \r\n          //events\r\n          event sellLandEvent(\r\n            uint indexed _id,\r\n            address indexed _seller,\r\n            string _name,\r\n            uint256 _price);\r\n        \r\n          event buyLandEvent(\r\n            uint indexed _id,\r\n            address indexed _seller,\r\n            address indexed _buyer,\r\n            string _name,\r\n            uint256 _price);\r\n        \r\n          event returnLandEvent(\r\n            uint indexed _id,\r\n            address indexed _seller,\r\n            address indexed _buyer,\r\n            string _name,\r\n            uint256 _price);\r\n          \r\n          \r\n          //selling land ,giving details of land\r\n          function sellLand(string memory _name, string memory _description, uint256 _price) public {\r\n                    // a new land\r\n                    landCounter++;\r\n                    _price=_price/ethCounter;\r\n                \r\n                    //store this land\r\n                    lands[landCounter] = Land(\r\n                        landCounter,\r\n                        msg.sender,\r\n                        address(0),\r\n                        _name,\r\n                        _description,\r\n                        _price\r\n                      );\r\n                    \r\n                    uint count=0;\r\n                    for (uint i = 1; i <= sellerCount; i++) \r\n                     {\r\n                        if (seller[i].sellerAddress == msg.sender) {\r\n                        count ++;\r\n                       }\r\n                     }\r\n                     if (count ==0) {\r\n                        sellerCount++;\r\n                        seller[sellerCount]=Seller(sellerCount,msg.sender,0);\r\n                     }\r\n                    \r\n                    emit sellLandEvent(landCounter, msg.sender, _name, _price);\r\n          }\r\n        \r\n        \r\n          //function for getting number of lands in total\r\n          function getNumberOfLands() public view returns (uint) {\r\n                 return landCounter;\r\n          }\r\n        \r\n          \r\n          //function for getting lands available for sale\r\n          function getLandsForSale() public view returns (uint[] memory) {\r\n                    if(landCounter == 0) {\r\n                      return new uint[](0);\r\n                    }\r\n                \r\n                    uint[] memory landIds = new uint[](landCounter);\r\n                \r\n                    uint numberOfLandsForSale = 0;\r\n                    for (uint i = 1; i <= landCounter; i++) {\r\n                      if (lands[i].buyer == address(0)) {\r\n                        landIds[numberOfLandsForSale] = lands[i].id;\r\n                        numberOfLandsForSale++;\r\n                      }\r\n                    }\r\n                \r\n                    uint[] memory forSale = new uint[](numberOfLandsForSale);\r\n                    for (uint j = 0; j < numberOfLandsForSale; j++) {\r\n                      forSale[j] = landIds[j];\r\n                    }\r\n                    return (forSale);\r\n          }\r\n          \r\n          //function for getting  Lands sold\r\n          function getLandsSold() public view returns (uint[] memory) {\r\n                    if(landCounter == 0) {\r\n                            return new uint[](0);\r\n                    }\r\n                \r\n                    uint[] memory landSoldIds = new uint[](landCounter);\r\n                \r\n                    uint numberOfLandsSold = 0;\r\n                    for (uint i = 1; i <= landCounter; i++) {\r\n                      if (lands[i].buyer != address(0)) {\r\n                        landSoldIds[numberOfLandsSold] = lands[i].id;\r\n                        numberOfLandsSold++;\r\n                      }\r\n                    }\r\n                \r\n                    uint[] memory forReturn = new uint[](numberOfLandsSold);\r\n                    for (uint j = 0; j < numberOfLandsSold; j++) {\r\n                      forReturn[j] = landSoldIds[j];\r\n                    }\r\n                    return (forReturn);\r\n          }\r\n          \r\n          \r\n          //function for buying Lands \r\n          function buyLand(uint _id) payable public {\r\n                    // we check whether there is at least one land\r\n                    require(landCounter > 0);\r\n                \r\n                    // we check whether the land exists\r\n                    require(_id > 0 && _id <= landCounter);\r\n                \r\n                    // we retrieve the land\r\n                    Land storage land = lands[_id];\r\n                \r\n                    // we check whether the land has not already been sold\r\n                    require(land.buyer == address(0));\r\n                \r\n                    // we don't allow the seller to buy his/her own land\r\n                    require(land.seller != msg.sender);\r\n                \r\n                    // we check whether the value sent corresponds to the land price\r\n                    //require(land.price == msg.value);\r\n                \r\n                    // keep buyer's information\r\n                    land.buyer = msg.sender;\r\n                \r\n                    // the buyer can buy the land\r\n                    land.seller.transfer(msg.value);\r\n                    \r\n                    uint count=0;\r\n                    for (uint i = 1; i <= buyerCount; i++) \r\n                     {\r\n                        if (buyer[i].buyerAddress == msg.sender) {\r\n                        count ++;\r\n                       }\r\n                     }\r\n                     if (count ==0) {\r\n                        buyerCount++;\r\n                        buyer[buyerCount]=Buyer(buyerCount,msg.sender,0);\r\n                     }\r\n                   \r\n                    emit buyLandEvent(_id, land.seller, land.buyer, land.name, land.price);\r\n            }\r\n            \r\n            \r\n            //funtion to return the land\r\n            function returnLand(uint _id) public {\r\n                    // we check whether there is at least one land\r\n                    require(landCounter > 0);\r\n                \r\n                    // we check whether the land exists\r\n                    require(_id > 0 && _id <= landCounter);\r\n                \r\n                    // we retrieve the land\r\n                    Land storage land = lands[_id];\r\n                \r\n                    // we check whether the land has  already been sold the same person\r\n                    require(land.buyer == msg.sender);\r\n                \r\n                    // we don't allow the seller to buy his/her own land\r\n                    //require(land.seller != msg.sender);\r\n                \r\n                    // we check whether the value sent corresponds to the land price\r\n                    //require(land.price == msg.value);\r\n                    \r\n                    // keep buyer's information\r\n                    land.buyer = address(0);\r\n                \r\n                    emit returnLandEvent(_id, land.seller, land.buyer, land.name, land.price);\r\n            } \r\n            \r\n            \r\n            \r\n            //review a seller\r\n            function review(uint _landId) public {\r\n                    \r\n                    uint count=0;\r\n                    //check in lands whether he brought a land\r\n                    for (uint i = 1; i <= landCounter; i++) {\r\n                          if (lands[i].buyer == msg.sender) {\r\n                              \r\n                              //check the seller address math with the land seller address and seller id with given id\r\n                              for (uint j = 1; j <= sellerCount; j++){\r\n                                if ((lands[i].seller == seller[j].sellerAddress)&&(seller[j].id==_landId)){\r\n                                    \r\n                                        seller[j].review++;\r\n                                        count++;\r\n                                        break;\r\n                                    }\r\n                                } \r\n                           }\r\n                           if(count!=0){\r\n                               break;\r\n                           }\r\n                    }\r\n            }\r\n        \r\n            //function to change price of a lands\r\n            function increasePrice(uint _landId,uint landPrice) public  {\r\n                for (uint i = 1; i <= landCounter; i++) {\r\n                    if ((lands[i].id == _landId)&&(lands[i].seller ==msg.sender))\r\n                    {\r\n                       landPrice=landPrice/ethCounter;\r\n                        lands[i].price = landPrice;\r\n                    }\r\n                }    \r\n            }\r\n            \r\n            \r\n            //kill the smart contract\r\n            function kill() public onlyOwner {\r\n                     selfdestruct(owner);\r\n          }\r\n}\r\n",
  "sourcePath": "C:/ethereum/blenditdemo/contracts/LandContract.sol",
  "compiler": {
    "name": "solc",
    "version": "0.5.0+commit.1d4f565a.Emscripten.clang"
  },
  "schemaVersion": "3.0.3",
  "updatedAt": "2019-03-17T03:47:28.571Z",
  "devdoc": {
    "methods": {}
  },
  "userdoc": {
    "methods": {}
  }
}